{
  "_format": "hh-sol-artifact-1",
  "contractName": "AgentLogger",
  "sourceName": "contracts/AgentLogger.sol",
  "abi": [
    {
      "inputs": [],
      "stateMutability": "nonpayable",
      "type": "constructor"
    },
    {
      "anonymous": false,
      "inputs": [
        {
          "indexed": true,
          "internalType": "address",
          "name": "agent",
          "type": "address"
        },
        {
          "indexed": false,
          "internalType": "string",
          "name": "actionHash",
          "type": "string"
        },
        {
          "indexed": false,
          "internalType": "uint256",
          "name": "cost",
          "type": "uint256"
        },
        {
          "indexed": false,
          "internalType": "uint256",
          "name": "timestamp",
          "type": "uint256"
        },
        {
          "indexed": true,
          "internalType": "uint256",
          "name": "actionIndex",
          "type": "uint256"
        }
      ],
      "name": "ActionLogged",
      "type": "event"
    },
    {
      "anonymous": false,
      "inputs": [
        {
          "indexed": true,
          "internalType": "address",
          "name": "agent",
          "type": "address"
        }
      ],
      "name": "AgentAuthorized",
      "type": "event"
    },
    {
      "anonymous": false,
      "inputs": [
        {
          "indexed": true,
          "internalType": "address",
          "name": "agent",
          "type": "address"
        }
      ],
      "name": "AgentRevoked",
      "type": "event"
    },
    {
      "anonymous": false,
      "inputs": [
        {
          "indexed": true,
          "internalType": "address",
          "name": "previousOwner",
          "type": "address"
        },
        {
          "indexed": true,
          "internalType": "address",
          "name": "newOwner",
          "type": "address"
        }
      ],
      "name": "OwnershipTransferred",
      "type": "event"
    },
    {
      "inputs": [
        {
          "internalType": "uint256",
          "name": "",
          "type": "uint256"
        }
      ],
      "name": "actions",
      "outputs": [
        {
          "internalType": "address",
          "name": "agent",
          "type": "address"
        },
        {
          "internalType": "string",
          "name": "actionHash",
          "type": "string"
        },
        {
          "internalType": "uint256",
          "name": "cost",
          "type": "uint256"
        },
        {
          "internalType": "uint256",
          "name": "timestamp",
          "type": "uint256"
        }
      ],
      "stateMutability": "view",
      "type": "function"
    },
    {
      "inputs": [
        {
          "internalType": "address",
          "name": "",
          "type": "address"
        },
        {
          "internalType": "uint256",
          "name": "",
          "type": "uint256"
        }
      ],
      "name": "agentActions",
      "outputs": [
        {
          "internalType": "uint256",
          "name": "",
          "type": "uint256"
        }
      ],
      "stateMutability": "view",
      "type": "function"
    },
    {
      "inputs": [
        {
          "internalType": "address",
          "name": "agent",
          "type": "address"
        }
      ],
      "name": "authorizeAgent",
      "outputs": [],
      "stateMutability": "nonpayable",
      "type": "function"
    },
    {
      "inputs": [
        {
          "internalType": "address",
          "name": "",
          "type": "address"
        }
      ],
      "name": "authorizedAgents",
      "outputs": [
        {
          "internalType": "bool",
          "name": "",
          "type": "bool"
        }
      ],
      "stateMutability": "view",
      "type": "function"
    },
    {
      "inputs": [
        {
          "internalType": "uint256",
          "name": "index",
          "type": "uint256"
        }
      ],
      "name": "getAction",
      "outputs": [
        {
          "internalType": "address",
          "name": "agent",
          "type": "address"
        },
        {
          "internalType": "string",
          "name": "actionHash",
          "type": "string"
        },
        {
          "internalType": "uint256",
          "name": "cost",
          "type": "uint256"
        },
        {
          "internalType": "uint256",
          "name": "timestamp",
          "type": "uint256"
        }
      ],
      "stateMutability": "view",
      "type": "function"
    },
    {
      "inputs": [
        {
          "internalType": "address",
          "name": "agent",
          "type": "address"
        }
      ],
      "name": "getAgentActionCount",
      "outputs": [
        {
          "internalType": "uint256",
          "name": "",
          "type": "uint256"
        }
      ],
      "stateMutability": "view",
      "type": "function"
    },
    {
      "inputs": [
        {
          "internalType": "address",
          "name": "agent",
          "type": "address"
        }
      ],
      "name": "getAgentActionIndices",
      "outputs": [
        {
          "internalType": "uint256[]",
          "name": "",
          "type": "uint256[]"
        }
      ],
      "stateMutability": "view",
      "type": "function"
    },
    {
      "inputs": [
        {
          "internalType": "string",
          "name": "actionHash",
          "type": "string"
        },
        {
          "internalType": "uint256",
          "name": "cost",
          "type": "uint256"
        }
      ],
      "name": "logAction",
      "outputs": [],
      "stateMutability": "nonpayable",
      "type": "function"
    },
    {
      "inputs": [],
      "name": "owner",
      "outputs": [
        {
          "internalType": "address",
          "name": "",
          "type": "address"
        }
      ],
      "stateMutability": "view",
      "type": "function"
    },
    {
      "inputs": [
        {
          "internalType": "address",
          "name": "agent",
          "type": "address"
        }
      ],
      "name": "revokeAgent",
      "outputs": [],
      "stateMutability": "nonpayable",
      "type": "function"
    },
    {
      "inputs": [],
      "name": "totalActionsLogged",
      "outputs": [
        {
          "internalType": "uint256",
          "name": "",
          "type": "uint256"
        }
      ],
      "stateMutability": "view",
      "type": "function"
    },
    {
      "inputs": [
        {
          "internalType": "address",
          "name": "newOwner",
          "type": "address"
        }
      ],
      "name": "transferOwnership",
      "outputs": [],
      "stateMutability": "nonpayable",
      "type": "function"
    }
  ],
  "bytecode": "0x608060405234801561001057600080fd5b50600080546001600160a01b03191633179055610ccd806100326000396000f3fe608060405234801561001057600080fd5b50600436106100b45760003560e01c80638da5cb5b116100715780638da5cb5b1461015d578063b3e8ecd414610188578063b6e7687314610191578063e291bae1146101a4578063efd76065146101cd578063f2fde38b1461020057600080fd5b806309d8ec79146100b95780633084ee5d146100ce5780636d88b24d146100f45780637da6ac0d1461010757806383240f831461011a578063883cf4721461013d575b600080fd5b6100cc6100c73660046108b4565b610213565b005b6100e16100dc366004610985565b6103c9565b6040519081526020015b60405180910390f35b6100cc6101023660046109af565b6103fa565b6100cc6101153660046109af565b6104c1565b61012d6101283660046109d1565b610534565b6040516100eb9493929190610a30565b61015061014b3660046109af565b610602565b6040516100eb9190610a67565b600054610170906001600160a01b031681565b6040516001600160a01b0390911681526020016100eb565b6100e160025481565b61012d61019f3660046109d1565b61066e565b6100e16101b23660046109af565b6001600160a01b031660009081526004602052604090205490565b6101f06101db3660046109af565b60016020526000908152604090205460ff1681565b60405190151581526020016100eb565b6100cc61020e3660046109af565b6107da565b3360009081526001602052604090205460ff168061023b57506000546001600160a01b031633145b61027d5760405162461bcd60e51b815260206004820152600e60248201526d139bdd08185d5d1a1bdc9a5e995960921b60448201526064015b60405180910390fd5b60038054604080516080810182523381526020810186815291810185905242606082015260018301845560009390935282517fc2575a0e9e593c00f959f8c92f12db2869c3395a3b0502d05e2516446f71f85b6004840290810180546001600160a01b0319166001600160a01b03909316929092178255915192939283927fc2575a0e9e593c00f959f8c92f12db2869c3395a3b0502d05e2516446f71f85c01906103289082610b34565b506040828101516002808401919091556060909301516003909201919091553360009081526004602090815291812080546001810182559082529181209091018490558154919061037883610bf4565b919050555081336001600160a01b03167f6cc6dc58960eb70661993a1a71faf233ca302b4ba39ee9340b0ff3343702d13c8686426040516103bb93929190610c1b565b60405180910390a350505050565b600460205281600052604060002081815481106103e557600080fd5b90600052602060002001600091509150505481565b6000546001600160a01b031633146104245760405162461bcd60e51b815260040161027490610c40565b6001600160a01b0381166104725760405162461bcd60e51b8152602060048201526015602482015274496e76616c6964206167656e74206164647265737360581b6044820152606401610274565b6001600160a01b0381166000818152600160208190526040808320805460ff1916909217909155517f26e663c48c070d2d3c2bf6bcf88dc0a1e3ae99c58c36411130bed5924cf952669190a250565b6000546001600160a01b031633146104eb5760405162461bcd60e51b815260040161027490610c40565b6001600160a01b038116600081815260016020526040808220805460ff19169055517f1d2ac3af5c639e57ee8f25bc162ea13a1ef8a663c92a4f3e33f126dd2d4feba49190a250565b6003818154811061054457600080fd5b6000918252602090912060049091020180546001820180546001600160a01b0390921693509061057390610aab565b80601f016020809104026020016040519081016040528092919081815260200182805461059f90610aab565b80156105ec5780601f106105c1576101008083540402835291602001916105ec565b820191906000526020600020905b8154815290600101906020018083116105cf57829003601f168201915b5050505050908060020154908060030154905084565b6001600160a01b03811660009081526004602090815260409182902080548351818402810184019094528084526060939283018282801561066257602002820191906000526020600020905b81548152602001906001019080831161064e575b50505050509050919050565b6000606060008060038054905085106106c95760405162461bcd60e51b815260206004820152601a60248201527f416374696f6e20696e646578206f7574206f6620626f756e64730000000000006044820152606401610274565b6000600386815481106106de576106de610c81565b6000918252602091829020604080516080810190915260049092020180546001600160a01b03168252600181018054929391929184019161071e90610aab565b80601f016020809104026020016040519081016040528092919081815260200182805461074a90610aab565b80156107975780601f1061076c57610100808354040283529160200191610797565b820191906000526020600020905b81548152906001019060200180831161077a57829003601f168201915b5050505050815260200160028201548152602001600382015481525050905080600001518160200151826040015183606001519450945094509450509193509193565b6000546001600160a01b031633146108045760405162461bcd60e51b815260040161027490610c40565b6001600160a01b03811661084e5760405162461bcd60e51b815260206004820152601160248201527024b73b30b634b2103732bb9037bbb732b960791b6044820152606401610274565b600080546001600160a01b038381166001600160a01b0319831681178455604051919092169283917f8be0079c531659141344cd1fd0a4f28419497f9722a3daafe3b4186f6b6457e09190a35050565b634e487b7160e01b600052604160045260246000fd5b600080604083850312156108c757600080fd5b823567ffffffffffffffff808211156108df57600080fd5b818501915085601f8301126108f357600080fd5b8135818111156109055761090561089e565b604051601f8201601f19908116603f0116810190838211818310171561092d5761092d61089e565b8160405282815288602084870101111561094657600080fd5b826020860160208301376000602093820184015298969091013596505050505050565b80356001600160a01b038116811461098057600080fd5b919050565b6000806040838503121561099857600080fd5b6109a183610969565b946020939093013593505050565b6000602082840312156109c157600080fd5b6109ca82610969565b9392505050565b6000602082840312156109e357600080fd5b5035919050565b6000815180845260005b81811015610a10576020818501810151868301820152016109f4565b506000602082860101526020601f19601f83011685010191505092915050565b6001600160a01b0385168152608060208201819052600090610a54908301866109ea565b6040830194909452506060015292915050565b6020808252825182820181905260009190848201906040850190845b81811015610a9f57835183529284019291840191600101610a83565b50909695505050505050565b600181811c90821680610abf57607f821691505b602082108103610adf57634e487b7160e01b600052602260045260246000fd5b50919050565b601f821115610b2f57600081815260208120601f850160051c81016020861015610b0c5750805b601f850160051c820191505b81811015610b2b57828155600101610b18565b5050505b505050565b815167ffffffffffffffff811115610b4e57610b4e61089e565b610b6281610b5c8454610aab565b84610ae5565b602080601f831160018114610b975760008415610b7f5750858301515b600019600386901b1c1916600185901b178555610b2b565b600085815260208120601f198616915b82811015610bc657888601518255948401946001909101908401610ba7565b5085821015610be45787850151600019600388901b60f8161c191681555b5050505050600190811b01905550565b600060018201610c1457634e487b7160e01b600052601160045260246000fd5b5060010190565b606081526000610c2e60608301866109ea565b60208301949094525060400152919050565b60208082526021908201527f4f6e6c79206f776e65722063616e2063616c6c20746869732066756e6374696f6040820152603760f91b606082015260800190565b634e487b7160e01b600052603260045260246000fdfea26469706673582212201d7baa71389f53e6382a92904a0fccb5f3bd134bb1321889567db0e739ff680664736f6c63430008140033",
  "linkReferences": {},
  "deployedLinkReferences": {}
}